:100000000C9446000C9465000C9465000C946500FB
:100010000C9465000C9465000C9465000C946500CC
:100020000C9465000C9465000C9465000C946500BC
:100030000C9465000C94DE000C9465000C94650033
:100040000C9465000C9465000C9465000C9465009C
:100050000C9465000C9465000C9465000C9465008C
:100060000C9465000C9465000C9465000C9465007C
:100070000C9465000C9465000C9465000C9465006C
:100080000C9465000C9465000C94650011241FBE4F
:10009000CFEFD0E4DEBFCDBF11E0A0E0B1E0E2E9F8
:1000A000F5E000E00BBF02C007900D92A231B1074E
:1000B000D9F721E0A2E1B1E001C01D92A132B2075F
:1000C000E1F70E9498020C94C7020C940000CF93B1
:1000D000DF9300D00F92CDB7DEB789837B836A832D
:1000E00089818A3031F48A819B81BC018DE00E9434
:1000F000670080EC90E0FC018081882F90E08072A6
:100100009927892BB1F386EC90E02981FC012083AB
:1001100080E090E00F900F900F90DF91CF910895C5
:10012000CF93DF93CDB7DEB781E080931601000057
:10013000DF91CF910895CF93DF93CDB7DEB781E8FC
:1001400090E02BE0FC01208388E890E02DE730E090
:10015000FC01318320838FE690E022E0FC012083C4
:1001600084E890E0FC011182108280910E01909150
:100170000F01A0911001B09111018093170190938C
:100180001801A0931901B0931A018FE590E0FC01CA
:1001900020818FE590E02068FC0120830000DF9142
:1001A000CF910895CF93DF93CDB7DEB781E890E08C
:1001B000FC0110820000DF91CF9108951F920F92F1
:1001C0000FB60F9211240BB60F922F933F934F93BC
:1001D0005F936F937F938F939F93AF93BF93EF93AF
:1001E000FF93CF93DF93CDB7DEB780911701909146
:1001F0001801A0911901B0911A010197A109B10943
:100200008093170190931801A0931901B0931A01DC
:100210008091170190911801A0911901B0911A01D4
:10022000892B8A2B8B2B91F40E94900080910E01D8
:1002300090910F01A0911001B091110180931701CD
:1002400090931801A0931901B0931A010000DF9157
:10025000CF91FF91EF91BF91AF919F918F917F913E
:100260006F915F914F913F912F910F900BBE0F9027
:100270000FBE0F901F901895CF93DF9300D000D042
:10028000CDB7DEB769837A838B839C8389819A811A
:10029000AB81BC8180930E0190930F01A09310015C
:1002A000B093110180910E0190910F01A091100166
:1002B000B09111018093170190931801A093190137
:1002C000B0931A0100000F900F900F900F90DF91E4
:1002D000CF910895CF93DF93CDB7DEB780911D0105
:1002E00090911E018330910579F184309105C8F514
:1002F00082309105E1F08330910598F5009719F06F
:10030000019741F02EC081E090E090931E01809310
:100310001D0131C080911401843040F182E090E0F1
:1003200090931E0180931D01109214011FC08091B3
:1003300014018430E8F083E090E090931E018093F4
:100340001D011092140114C080911401843090F0AA
:1003500081E090E090931E0180931D0110921401A2
:1003600009C010921E0110921D0105C0000003C0BB
:10037000000001C0000080911D0190911E0183309A
:10038000910501F18430910530F58230910589F0B5
:100390008330910500F5009701F1019709F01BC02A
:1003A00081E080931201809114018F5F809314018A
:1003B00015C082E080931201809114018F5F8093B9
:1003C00014010CC084E080931201809114018F5FAE
:1003D0008093140103C0000001C000000000DF9101
:1003E000CF910895CF93DF93CDB7DEB780911F01F2
:1003F0009091200182309105B1F083309105D0F4C5
:10040000009719F0019741F015C081E090E09093BA
:10041000200180931F0113C082E090E0909320019F
:1004200080931F010CC081E090E0909320018093A5
:100430001F0105C01092200110921F010000809141
:100440001F01909120018230910589F08330910540
:10045000C0F40097C1F0019709F013C08091150115
:100460008B3098F010921301109215010EC08091FC
:1004700015018B3060F081E080931301109215011B
:1004800006C0000005C0000003C0000001C000005D
:100490000000DF91CF910895CF93DF93CDB7DEB702
:1004A00080911B0190911C01009719F0019769F050
:1004B00018C081E090E090931C0180931B01809113
:1004C00015018F5F8093150111C081E090E090933A
:1004D0001C0180931B01809115018F5F8093150192
:1004E00005C010921C0110921B01000080911B019D
:1004F00090911C010097B9F0019709F015C0809107
:100500001301882F90E0880F991F880F991F880F7B
:10051000991F982F80911201292F282B85E290E0B6
:10052000FC01208301C000000000DF91CF910895FD
:10053000CF93DF93CDB7DEB784E290E02FEFFC01DD
:10054000208385E290E0FC01108264E670E080E0A8
:1005500090E00E943C010E949B0010921E011092AC
:100560001D011092200110921F0110921C01109287
:100570001B010E946A010E94F2010E944C020000CD
:10058000809116018823E1F310921601F2CFF894BE
:02059000FFCF9B
:1005920000000002000000006700000000000100EF
:0205A200000057
:00000001FF
