:100000000C9446000C9465000C9465000C946500FB
:100010000C9465000C9465000C9465000C946500CC
:100020000C9465000C9465000C9465000C946500BC
:100030000C9465000C94DE000C9465000C94650033
:100040000C9465000C9465000C9465000C9465009C
:100050000C9465000C9465000C9465000C9465008C
:100060000C9465000C9465000C9465000C9465007C
:100070000C9465000C9465000C9465000C9465006C
:100080000C9465000C9465000C94650011241FBE4F
:10009000CFEFD0E4DEBFCDBF11E0A0E0B1E0E2E100
:1000A000F5E000E00BBF02C007900D92A231B1074E
:1000B000D9F721E0A2E1B1E001C01D92AF31B20752
:1000C000E1F70E9458020C9487020C940000CF9331
:1000D000DF9300D00F92CDB7DEB789837B836A832D
:1000E00089818A3031F48A819B81BC018DE00E9434
:1000F000670080EC90E0FC018081882F90E08072A6
:100100009927892BB1F386EC90E02981FC012083AB
:1001100080E090E00F900F900F90DF91CF910895C5
:10012000CF93DF93CDB7DEB781E080931401000059
:10013000DF91CF910895CF93DF93CDB7DEB781E8FC
:1001400090E02BE0FC01208388E890E02DE730E090
:10015000FC01318320838FE690E022E0FC012083C4
:1001600084E890E0FC011182108280910E01909150
:100170000F01A0911001B09111018093150190938E
:100180001601A0931701B09318018FE590E0FC01D0
:1001900020818FE590E02068FC0120830000DF9142
:1001A000CF910895CF93DF93CDB7DEB781E890E08C
:1001B000FC0110820000DF91CF9108951F920F92F1
:1001C0000FB60F9211240BB60F922F933F934F93BC
:1001D0005F936F937F938F939F93AF93BF93EF93AF
:1001E000FF93CF93DF93CDB7DEB780911501909148
:1001F0001601A0911701B09118010197A109B10949
:100200008093150190931601A0931701B0931801E4
:100210008091150190911601A0911701B0911801DC
:10022000892B8A2B8B2B91F40E94900080910E01D8
:1002300090910F01A0911001B091110180931501CF
:1002400090931601A0931701B09318010000DF915D
:10025000CF91FF91EF91BF91AF919F918F917F913E
:100260006F915F914F913F912F910F900BBE0F9027
:100270000FBE0F901F901895CF93DF9300D000D042
:10028000CDB7DEB769837A838B839C8389819A811A
:10029000AB81BC8180930E0190930F01A09310015C
:1002A000B093110180910E0190910F01A091100166
:1002B000B09111018093150190931601A09317013D
:1002C000B093180100000F900F900F900F90DF91E6
:1002D000CF910895CF93DF93CDB7DEB780911B0107
:1002E00090911C018330910519F18430910538F506
:1002F00082309105B1F08330910508F5009719F02F
:10030000019741F01CC081E090E090931C01809324
:100310001B011AC082E090E090931C0180931B01A6
:1003200013C083E090E090931C0180931B010CC0EC
:1003300081E090E090931C0180931B0105C0109216
:100340001C0110921B01000080911B0190911C0167
:1003500083309105B1F084309105B8F48230910575
:1003600061F08330910588F4009789F0019709F0D6
:100370000CC081E0809312010BC082E080931201D7
:1003800007C084E08093120103C0000001C0000098
:100390000000DF91CF910895CF93DF93CDB7DEB703
:1003A00080911D0190911E0182309105B1F0833042
:1003B0009105D0F4009719F0019741F015C081E044
:1003C00090E090931E0180931D0113C082E090E0A5
:1003D00090931E0180931D010CC081E090E09093EA
:1003E0001E0180931D0105C010921E0110921D0177
:1003F000000080911D0190911E018230910559F0FD
:100400008330910560F4009761F0019709F007C00F
:100410001092130107C081E08093130103C0000014
:1004200001C000000000DF91CF910895CF93DF93CA
:10043000CDB7DEB78091190190911A01009719F09C
:10044000019741F00EC081E090E090931A018093F3
:1004500019010CC081E090E090931A01809319017A
:1004600005C010921A011092190100008091190123
:1004700090911A010097B9F0019709F015C0809189
:100480001301882F90E0880F991F880F991F880FFC
:10049000991F982F80911201292F282B85E290E037
:1004A000FC01208301C000000000DF91CF9108957E
:1004B000CF93DF93CDB7DEB784E290E02FEFFC015E
:1004C000208385E290E0FC01108268EE73E080E01A
:1004D00090E00E943C010E949B0010921C0110922F
:1004E0001B0110921E0110921D0110921A01109210
:1004F00019010E946A010E94CC010E9416020000AC
:10050000809114018823E1F310921401F2CFF89442
:02051000FFCF1B
:10051200000000020000000067000000000001006F
:020522000000D7
:00000001FF
