:100000000C9446000C9465000C9465000C946500FB
:100010000C9465000C9465000C9465000C946500CC
:100020000C9465000C9465000C9465000C946500BC
:100030000C9465000C94DE000C9465000C94650033
:100040000C9465000C9465000C9465000C9465009C
:100050000C9465000C9465000C9465000C9465008C
:100060000C9465000C9465000C9465000C9465007C
:100070000C9465000C9465000C9465000C9465006C
:100080000C9465000C9465000C94650011241FBE4F
:10009000CFEFD0E4DEBFCDBF11E0A0E0B1E0EAE3F6
:1000A000F7E000E00BBF02C007900D92A231B1074C
:1000B000D9F721E0A2E1B1E001C01D92AE32B20752
:1000C000E1F70E9401030C949B030C940000CF9372
:1000D000DF9300D00F92CDB7DEB789837B836A832D
:1000E00089818A3031F48A819B81BC018DE00E9434
:1000F000670080EC90E0FC018081882F90E08072A6
:100100009927892BB1F386EC90E02981FC012083AB
:1001100080E090E00F900F900F90DF91CF910895C5
:10012000CF93DF93CDB7DEB781E08093210100004C
:10013000DF91CF910895CF93DF93CDB7DEB781E8FC
:1001400090E02BE0FC01208388E890E02DE730E090
:10015000FC01318320838FE690E022E0FC012083C4
:1001600084E890E0FC011182108280910E01909150
:100170000F01A0911001B091110180932201909381
:100180002301A0932401B09325018FE590E0FC01A9
:1001900020818FE590E02068FC0120830000DF9142
:1001A000CF910895CF93DF93CDB7DEB781E890E08C
:1001B000FC0110820000DF91CF9108951F920F92F1
:1001C0000FB60F9211240BB60F922F933F934F93BC
:1001D0005F936F937F938F939F93AF93BF93EF93AF
:1001E000FF93CF93DF93CDB7DEB78091220190913B
:1001F0002301A0912401B09125010197A109B10922
:100200008093220190932301A0932401B0932501B0
:100210008091220190912301A0912401B0912501A8
:10022000892B8A2B8B2B91F40E94900080910E01D8
:1002300090910F01A0911001B091110180932201C2
:1002400090932301A0932401B09325010000DF9136
:10025000CF91FF91EF91BF91AF919F918F917F913E
:100260006F915F914F913F912F910F900BBE0F9027
:100270000FBE0F901F901895CF93DF9300D000D042
:10028000CDB7DEB769837A838B839C8389819A811A
:10029000AB81BC8180930E0190930F01A09310015C
:1002A000B093110180910E0190910F01A091100166
:1002B000B09111018093220190932301A093240116
:1002C000B093250100000F900F900F900F90DF91D9
:1002D000CF910895CF93DF93CDB7DEB780912801FA
:1002E000909129018330910519F18430910538F5F9
:1002F00082309105B1F08330910508F5009719F02F
:10030000019741F01CC081E090E090932901809317
:1003100028011AC082E090E090932901809328017F
:1003200013C083E090E090932901809328010CC0D2
:1003300081E090E0909329018093280105C01092FC
:100340002901109228010000809128019091290133
:1003500083309105B1F084309105B8F48230910575
:1003600061F08330910588F4009789F0019709F0D6
:100370000CC081E0809312010BC082E080931201D7
:1003800007C084E08093120103C0000001C0000098
:100390000000DF91CF910895CF93DF93CDB7DEB703
:1003A00080912C0190912D0182309105B1F0833024
:1003B0009105D0F4009719F0019741F015C081E044
:1003C00090E090932D0180932C0113C082E090E087
:1003D00090932D0180932C010CC081E090E09093CC
:1003E0002D0180932C0105C010922D0110922C013B
:1003F000000080912C0190912D018230910559F0DF
:100400008330910560F4009761F0019709F007C00F
:100410001092130107C088E08093130103C000000D
:1004200001C000000000DF91CF910895CF93DF93CA
:10043000CDB7DEB780912A0190912B0182309105D2
:1004400051F18330910508F040C0009719F00197F1
:1004500041F03BC082E090E090932B0180932A0111
:1004600035C080E290E0FC018081882F90E080958B
:10047000909584709927049739F481E090E09093E7
:100480002B0180932A0122C082E090E090932B01FF
:1004900080932A011BC080E290E0FC018081882FBC
:1004A00090E08095909584709927049739F481E0C5
:1004B00090E090932B0180932A0108C082E090E0A5
:1004C00090932B0180932A0101C0000080912A01A2
:1004D00090912B018230910509F445C0833091053C
:1004E00008F04CC0009709F44BC0019709F046C0D2
:1004F00080911D0190911E01A0911F01B0912001DA
:100500000397A105B10520F480E18093140117C081
:1005100080911D0190911E01A0911F01B0912001B9
:100520000597A105B10518F41092140108C01092A6
:100530001D0110921E0110921F0110922001809146
:100540001D0190911E01A0911F01B0912001019603
:10055000A11DB11D80931D0190931E01A0931F0149
:10056000B09320010EC01092140110921D01109240
:100570001E0110921F011092200103C0000001C053
:1005800000000000DF91CF910895CF93DF93CDB7A6
:10059000DEB78091260190912701009719F001970D
:1005A00041F00EC081E090E09093270180932601F6
:1005B0000CC081E090E0909327018093260105C054
:1005C000109227011092260100008091260190913F
:1005D0002701009789F0019709F00FC0909112014F
:1005E00080911301392F382B2091140185E290E07E
:1005F000232BFC01208301C000000000DF91CF917C
:100600000895CF93DF93CDB7DEB781E290E0FC0190
:10061000108282E290E02FEFFC01208384E290E0E0
:100620002FEFFC01208385E290E0FC01108261E065
:1006300070E080E090E00E943C010E949B001092DC
:1006400029011092280110922D0110922C01109274
:100650002701109226011092150110921601109296
:100660001701109218011092190110921A0110929C
:100670001B0110921C018091150190911601A0910F
:100680001701B09118018C329140A105B10550F0CD
:100690000E946A0110921501109216011092170122
:1006A000109218018091190190911A01A0911B01DB
:1006B000B0911C01883E9340A105B10550F00E9405
:1006C000CC011092190110921A0110921B01109284
:1006D0001C010E9416020E94C502000080912101A7
:1006E0008823E1F310922101809115019091160168
:1006F000A0911701B09118010196A11DB11D809321
:10070000150190931601A0931701B09318018091E1
:10071000190190911A01A0911B01B0911C01019641
:10072000A11DB11D8093190190931A01A0931B0183
:0A073000B0931C01A0CFF894FFCF96
:10073A000000000200000000670000000000010045
:02074A000000AD
:00000001FF
